{
  "contractName": "Ballot",
  "abi": [
    {
      "inputs": [
        {
          "internalType": "uint256",
          "name": "_totalCandidates",
          "type": "uint256"
        }
      ],
      "stateMutability": "nonpayable",
      "type": "constructor"
    },
    {
      "inputs": [
        {
          "internalType": "uint256",
          "name": "",
          "type": "uint256"
        }
      ],
      "name": "candidates",
      "outputs": [
        {
          "internalType": "uint256",
          "name": "votes",
          "type": "uint256"
        }
      ],
      "stateMutability": "view",
      "type": "function",
      "constant": true
    },
    {
      "inputs": [],
      "name": "candidatesCount",
      "outputs": [
        {
          "internalType": "uint256",
          "name": "",
          "type": "uint256"
        }
      ],
      "stateMutability": "view",
      "type": "function",
      "constant": true
    },
    {
      "inputs": [
        {
          "internalType": "address",
          "name": "",
          "type": "address"
        }
      ],
      "name": "voters",
      "outputs": [
        {
          "internalType": "string",
          "name": "name",
          "type": "string"
        },
        {
          "internalType": "string",
          "name": "email",
          "type": "string"
        },
        {
          "internalType": "string",
          "name": "phnno",
          "type": "string"
        },
        {
          "internalType": "uint256",
          "name": "weight",
          "type": "uint256"
        },
        {
          "internalType": "bool",
          "name": "voted",
          "type": "bool"
        },
        {
          "internalType": "uint256",
          "name": "votedTo",
          "type": "uint256"
        },
        {
          "internalType": "bool",
          "name": "registered",
          "type": "bool"
        }
      ],
      "stateMutability": "view",
      "type": "function",
      "constant": true
    },
    {
      "inputs": [
        {
          "internalType": "address",
          "name": "_voter",
          "type": "address"
        },
        {
          "internalType": "string",
          "name": "_name",
          "type": "string"
        },
        {
          "internalType": "string",
          "name": "_email",
          "type": "string"
        },
        {
          "internalType": "string",
          "name": "_phnno",
          "type": "string"
        }
      ],
      "name": "register",
      "outputs": [],
      "stateMutability": "nonpayable",
      "type": "function"
    },
    {
      "inputs": [
        {
          "internalType": "uint256",
          "name": "_candidateNo",
          "type": "uint256"
        }
      ],
      "name": "vote",
      "outputs": [],
      "stateMutability": "nonpayable",
      "type": "function"
    },
    {
      "inputs": [],
      "name": "findWinner",
      "outputs": [
        {
          "internalType": "uint256",
          "name": "winner",
          "type": "uint256"
        }
      ],
      "stateMutability": "view",
      "type": "function",
      "constant": true
    }
  ],
  "bytecode": "0x60806040523480156200001157600080fd5b50604051620010eb380380620010eb8339818101604052810190620000379190620000c2565b8060028190555060005b81811015620000a3576001604051806020016040528060008152509080600181540180825580915050600190039060005260206000200160009091909190915060008201518160000155505080806200009a90620000f8565b91505062000041565b50506200018f565b600081519050620000bc8162000175565b92915050565b600060208284031215620000d557600080fd5b6000620000e584828501620000ab565b91505092915050565b6000819050919050565b60006200010582620000ee565b91507fffffffffffffffffffffffffffffffffffffffffffffffffffffffffffffffff8214156200013b576200013a62000146565b5b600182019050919050565b7f4e487b7100000000000000000000000000000000000000000000000000000000600052601160045260246000fd5b6200018081620000ee565b81146200018c57600080fd5b50565b610f4c806200019f6000396000f3fe608060405234801561001057600080fd5b50600436106100625760003560e01c80630121b93f14610067578063063d93d8146100835780632d35a8a21461009f5780633477ee2e146100bd5780638e71decb146100ed578063a3ec138d1461010b575b600080fd5b610081600480360381019061007c9190610a33565b610141565b005b61009d60048036038101906100989190610988565b6102a8565b005b6100a761053a565b6040516100b49190610c57565b60405180910390f35b6100d760048036038101906100d29190610a33565b610540565b6040516100e49190610c57565b60405180910390f35b6100f561056a565b6040516101029190610c57565b60405180910390f35b6101256004803603810190610120919061095f565b610636565b6040516101389796959493929190610b73565b60405180910390f35b60008060003373ffffffffffffffffffffffffffffffffffffffff1673ffffffffffffffffffffffffffffffffffffffff16815260200190815260200160002090508060040160009054906101000a900460ff16156101d5576040517f08c379a00000000000000000000000000000000000000000000000000000000081526004016101cc90610c37565b60405180910390fd5b600180549050821061021c576040517f08c379a000000000000000000000000000000000000000000000000000000000815260040161021390610c17565b60405180910390fd5b60018160040160006101000a81548160ff021916908315150217905550818160050181905550806003015460018381548110610281577f4e487b7100000000000000000000000000000000000000000000000000000000600052603260045260246000fd5b90600052602060002001600001600082825461029d9190610cef565b925050819055505050565b6000808573ffffffffffffffffffffffffffffffffffffffff1673ffffffffffffffffffffffffffffffffffffffff16815260200190815260200160002060060160009054906101000a900460ff1615610337576040517f08c379a000000000000000000000000000000000000000000000000000000000815260040161032e90610bf7565b60405180910390fd5b60008060008673ffffffffffffffffffffffffffffffffffffffff1673ffffffffffffffffffffffffffffffffffffffff16815260200190815260200160002060040160006101000a81548160ff021916908315150217905550826000808673ffffffffffffffffffffffffffffffffffffffff1673ffffffffffffffffffffffffffffffffffffffff16815260200190815260200160002060000190805190602001906103e692919061082a565b50816000808673ffffffffffffffffffffffffffffffffffffffff1673ffffffffffffffffffffffffffffffffffffffff168152602001908152602001600020600101908051906020019061043c92919061082a565b50806000808673ffffffffffffffffffffffffffffffffffffffff1673ffffffffffffffffffffffffffffffffffffffff168152602001908152602001600020600201908051906020019061049292919061082a565b5060016000808673ffffffffffffffffffffffffffffffffffffffff1673ffffffffffffffffffffffffffffffffffffffff1681526020019081526020016000206003018190555060016000808673ffffffffffffffffffffffffffffffffffffffff1673ffffffffffffffffffffffffffffffffffffffff16815260200190815260200160002060060160006101000a81548160ff02191690831515021790555050505050565b60025481565b6001818154811061055057600080fd5b906000526020600020016000915090508060000154905081565b6000806000905060005b60018054905081101561063157600181815481106105bb577f4e487b7100000000000000000000000000000000000000000000000000000000600052603260045260246000fd5b906000526020600020016000015482101561061e576001818154811061060a577f4e487b7100000000000000000000000000000000000000000000000000000000600052603260045260246000fd5b906000526020600020016000015491508092505b808061062990610e01565b915050610574565b505090565b600060205280600052604060002060009150905080600001805461065990610dcf565b80601f016020809104026020016040519081016040528092919081815260200182805461068590610dcf565b80156106d25780601f106106a7576101008083540402835291602001916106d2565b820191906000526020600020905b8154815290600101906020018083116106b557829003601f168201915b5050505050908060010180546106e790610dcf565b80601f016020809104026020016040519081016040528092919081815260200182805461071390610dcf565b80156107605780601f1061073557610100808354040283529160200191610760565b820191906000526020600020905b81548152906001019060200180831161074357829003601f168201915b50505050509080600201805461077590610dcf565b80601f01602080910402602001604051908101604052809291908181526020018280546107a190610dcf565b80156107ee5780601f106107c3576101008083540402835291602001916107ee565b820191906000526020600020905b8154815290600101906020018083116107d157829003601f168201915b5050505050908060030154908060040160009054906101000a900460ff16908060050154908060060160009054906101000a900460ff16905087565b82805461083690610dcf565b90600052602060002090601f016020900481019282610858576000855561089f565b82601f1061087157805160ff191683800117855561089f565b8280016001018555821561089f579182015b8281111561089e578251825591602001919060010190610883565b5b5090506108ac91906108b0565b5090565b5b808211156108c95760008160009055506001016108b1565b5090565b60006108e06108db84610ca3565b610c72565b9050828152602081018484840111156108f857600080fd5b610903848285610d8d565b509392505050565b60008135905061091a81610ee8565b92915050565b600082601f83011261093157600080fd5b81356109418482602086016108cd565b91505092915050565b60008135905061095981610eff565b92915050565b60006020828403121561097157600080fd5b600061097f8482850161090b565b91505092915050565b6000806000806080858703121561099e57600080fd5b60006109ac8782880161090b565b945050602085013567ffffffffffffffff8111156109c957600080fd5b6109d587828801610920565b935050604085013567ffffffffffffffff8111156109f257600080fd5b6109fe87828801610920565b925050606085013567ffffffffffffffff811115610a1b57600080fd5b610a2787828801610920565b91505092959194509250565b600060208284031215610a4557600080fd5b6000610a538482850161094a565b91505092915050565b610a6581610d57565b82525050565b6000610a7682610cd3565b610a808185610cde565b9350610a90818560208601610d9c565b610a9981610ed7565b840191505092915050565b6000610ab1601b83610cde565b91507f596f75206861766520616c7265616479207265676973746572656400000000006000830152602082019050919050565b6000610af1601183610cde565b91507f496e76616c69642063616e6469646174650000000000000000000000000000006000830152602082019050919050565b6000610b31601683610cde565b91507f596f75206861766520616c726561647920766f746564000000000000000000006000830152602082019050919050565b610b6d81610d83565b82525050565b600060e0820190508181036000830152610b8d818a610a6b565b90508181036020830152610ba18189610a6b565b90508181036040830152610bb58188610a6b565b9050610bc46060830187610b64565b610bd16080830186610a5c565b610bde60a0830185610b64565b610beb60c0830184610a5c565b98975050505050505050565b60006020820190508181036000830152610c1081610aa4565b9050919050565b60006020820190508181036000830152610c3081610ae4565b9050919050565b60006020820190508181036000830152610c5081610b24565b9050919050565b6000602082019050610c6c6000830184610b64565b92915050565b6000604051905081810181811067ffffffffffffffff82111715610c9957610c98610ea8565b5b8060405250919050565b600067ffffffffffffffff821115610cbe57610cbd610ea8565b5b601f19601f8301169050602081019050919050565b600081519050919050565b600082825260208201905092915050565b6000610cfa82610d83565b9150610d0583610d83565b9250827fffffffffffffffffffffffffffffffffffffffffffffffffffffffffffffffff03821115610d3a57610d39610e4a565b5b828201905092915050565b6000610d5082610d63565b9050919050565b60008115159050919050565b600073ffffffffffffffffffffffffffffffffffffffff82169050919050565b6000819050919050565b82818337600083830152505050565b60005b83811015610dba578082015181840152602081019050610d9f565b83811115610dc9576000848401525b50505050565b60006002820490506001821680610de757607f821691505b60208210811415610dfb57610dfa610e79565b5b50919050565b6000610e0c82610d83565b91507fffffffffffffffffffffffffffffffffffffffffffffffffffffffffffffffff821415610e3f57610e3e610e4a565b5b600182019050919050565b7f4e487b7100000000000000000000000000000000000000000000000000000000600052601160045260246000fd5b7f4e487b7100000000000000000000000000000000000000000000000000000000600052602260045260246000fd5b7f4e487b7100000000000000000000000000000000000000000000000000000000600052604160045260246000fd5b6000601f19601f8301169050919050565b610ef181610d45565b8114610efc57600080fd5b50565b610f0881610d83565b8114610f1357600080fd5b5056fea26469706673582212201c3c63e6c606f569679eb4a8ba7b394c5c05bb98cc30ddaceedd486f954c139964736f6c63430008000033",
  "immutableReferences": {},
  "source": "// SPDX-License-Identifier: MIT\r\npragma solidity ^0.8.0;\r\n\r\ncontract Ballot {\r\n    struct Voter {\r\n        string name;\r\n        string email;\r\n        string phnno;\r\n        uint weight;\r\n        bool voted;\r\n        uint votedTo;\r\n        bool registered;\r\n    }\r\n\r\n    mapping (address => Voter) public voters;\r\n\r\n    struct Candidate {\r\n        uint votes;\r\n    }\r\n\r\n    Candidate[] public candidates;\r\n    uint public candidatesCount;\r\n\r\n    constructor(uint _totalCandidates) {\r\n        candidatesCount = _totalCandidates;\r\n        for (uint i = 0; i < _totalCandidates; i++) {\r\n            candidates.push(Candidate(0));\r\n        }\r\n    }\r\n\r\n    function register(address _voter, string memory _name, string memory _email, string memory _phnno) public {\r\n        require(!voters[_voter].registered, \"You have already registered\");\r\n        voters[_voter].voted = false;\r\n        voters[_voter].name = _name;\r\n        voters[_voter].email = _email;\r\n        voters[_voter].phnno = _phnno;\r\n        voters[_voter].weight = 1;\r\n        voters[_voter].registered = true;\r\n    }\r\n\r\n    function vote(uint _candidateNo) public {\r\n        Voter storage sender = voters[msg.sender];\r\n        require(!sender.voted, \"You have already voted\");\r\n        require(_candidateNo < candidates.length, \"Invalid candidate\");\r\n        sender.voted = true;\r\n        sender.votedTo = _candidateNo;\r\n        candidates[_candidateNo].votes += sender.weight;\r\n    }\r\n\r\n    function findWinner() public view returns (uint winner) {\r\n        uint votesCount = 0;\r\n        for (uint i = 0; i < candidates.length; i++) {\r\n            if (votesCount < candidates[i].votes) {\r\n                votesCount = candidates[i].votes;\r\n                winner = i;\r\n            }   \r\n        }\r\n    }\r\n\r\n    // Timing logic removed as per request\r\n}\r\n",
  "sourcePath": "C:\\Users\\Yashkrit Singh\\Desktop\\Blockchain_Projects\\VotingApplication\\contracts\\Ballot.sol",
  "compiler": {
    "name": "solc",
    "version": "0.8.0+commit.c7dfd78e.Emscripten.clang"
  },
  "schemaVersion": "3.4.16",
  "updatedAt": "2024-10-20T00:51:53.802Z",
  "networkType": "ethereum",
  "devdoc": {
    "kind": "dev",
    "methods": {},
    "version": 1
  },
  "userdoc": {
    "kind": "user",
    "methods": {},
    "version": 1
  }
}